:100000000C9437000C9441000C9441000C94410076
:100010000C9441000C9441000C9441000C9441005C
:100020000C9441000C9441000C9441000C9441004C
:100030000C9441000C9441000C9441000C9441003C
:100040000C9441000C9441000C9441000C9441002C
:100050000C9441000C9441000C9441000C9441001C
:100060000C9441000C944100240000000000112475
:100070001FBECFEFD8E0DEBFCDBF0E94C1000C9401
:10008000C6000C94000061E080E00C945B0080E00E
:100090000E94B6008FE493EC0197F1F700C00000D6
:1000A000F6CF90E09C01220F331F280F391F2859EB
:1000B0003F4FC901089590E0FC01EE0FFF1FE80FCC
:1000C000F91FE859FF4F613079F43FB7F894208168
:1000D00081E090E0028002C0880F991F0A94E2F745
:1000E000282B20833FBF08952FB7F894308181E0FB
:1000F00090E0028002C0880F991F0A94E2F7809571
:10010000832380832FBF08950895089593B121E03C
:1001100030E002C0220F331F8A95E2F7892F90E06A
:100120002823392381E0232B09F480E008956130EE
:1001300071F44FB7F89495B121E030E0082E01C07A
:10014000220F0A94EAF7922B95B94FBF08959FB7F3
:10015000F89445B121E030E0082E01C0220F0A9446
:10016000EAF72095242325B99FBF089595B121E092
:1001700030E0082E01C0220F0A94EAF7922795B9C1
:1001800008950E9443000E944700FDCFF894FFCFDE
:00000001FF
