:100000000EC015C014C013C012C011C010C00FC064
:100010000EC00DC00CC00BC00AC009C008C011241E
:100020001FBECFE5D2E0DEBFCDBF6DD06FC0E8CF41
:1000300061E080E00CC080E05BD02FE182E19AE0DB
:10004000215080409040E1F700C00000F4CF6130C3
:1000500071F44FB7F89497B321E030E0082E01C057
:10006000220F0A94EAF7922B97BB4FBF08959FB7D0
:10007000F89447B321E030E0082E01C0220F0A9423
:10008000EAF72095242327BB9FBF0895089508957C
:1000900096B321E030E002C0220F331F8A95E2F7C9
:1000A000892F90E02823392381E0232B09F480E075
:1000B0000895613071F44FB7F89498B321E030E0BF
:1000C000082E01C0220F0A94EAF7922B98BB4FBF6B
:1000D00008959FB7F89448B321E030E0082E01C09E
:1000E000220F0A94EAF72095242328BB9FBF089586
:1000F00098B321E030E0082E01C0220F0A94EAF7FD
:10010000922798BB089594DF96DFFECFF894FFCF37
:00000001FF
